{
  "contractName": "PurchaseAgreement",
  "abi": [
    {
      "inputs": [],
      "payable": true,
      "stateMutability": "payable",
      "type": "constructor"
    },
    {
      "anonymous": false,
      "inputs": [],
      "name": "ItemRecieved",
      "type": "event"
    },
    {
      "anonymous": false,
      "inputs": [],
      "name": "PurchaseConfirmed",
      "type": "event"
    },
    {
      "anonymous": false,
      "inputs": [],
      "name": "PurchaseDeclined",
      "type": "event"
    },
    {
      "constant": true,
      "inputs": [],
      "name": "buyer",
      "outputs": [
        {
          "internalType": "address payable",
          "name": "",
          "type": "address"
        }
      ],
      "payable": false,
      "stateMutability": "view",
      "type": "function"
    },
    {
      "constant": true,
      "inputs": [],
      "name": "seller",
      "outputs": [
        {
          "internalType": "address payable",
          "name": "",
          "type": "address"
        }
      ],
      "payable": false,
      "stateMutability": "view",
      "type": "function"
    },
    {
      "constant": true,
      "inputs": [],
      "name": "state",
      "outputs": [
        {
          "internalType": "enum PurchaseAgreement.State",
          "name": "",
          "type": "uint8"
        }
      ],
      "payable": false,
      "stateMutability": "view",
      "type": "function"
    },
    {
      "constant": true,
      "inputs": [],
      "name": "value",
      "outputs": [
        {
          "internalType": "uint256",
          "name": "",
          "type": "uint256"
        }
      ],
      "payable": false,
      "stateMutability": "view",
      "type": "function"
    },
    {
      "constant": false,
      "inputs": [],
      "name": "confirmPurchase",
      "outputs": [],
      "payable": true,
      "stateMutability": "payable",
      "type": "function"
    },
    {
      "constant": false,
      "inputs": [],
      "name": "abortPurchase",
      "outputs": [],
      "payable": false,
      "stateMutability": "nonpayable",
      "type": "function"
    },
    {
      "constant": false,
      "inputs": [],
      "name": "confirmReceived",
      "outputs": [],
      "payable": false,
      "stateMutability": "nonpayable",
      "type": "function"
    }
  ],
  "bytecode": "0x608060405233600260006101000a81548173ffffffffffffffffffffffffffffffffffffffff021916908373ffffffffffffffffffffffffffffffffffffffff160217905550346000819055506000600260146101000a81548160ff0219169083600281111561006b57fe5b021790555061061b8061007f6000396000f3fe6080604052600436106100705760003560e01c80637380b4a71161004e5780637380b4a71461014e57806373fac6f014610165578063c19d93fb1461017c578063d6960697146101b557610070565b806308551a53146100755780633fa4f245146100cc5780637150d8ae146100f7575b600080fd5b34801561008157600080fd5b5061008a6101bf565b604051808273ffffffffffffffffffffffffffffffffffffffff1673ffffffffffffffffffffffffffffffffffffffff16815260200191505060405180910390f35b3480156100d857600080fd5b506100e16101e5565b6040518082815260200191505060405180910390f35b34801561010357600080fd5b5061010c6101eb565b604051808273ffffffffffffffffffffffffffffffffffffffff1673ffffffffffffffffffffffffffffffffffffffff16815260200191505060405180910390f35b34801561015a57600080fd5b50610163610211565b005b34801561017157600080fd5b5061017a610359565b005b34801561018857600080fd5b5061019161050c565b604051808260028111156101a157fe5b60ff16815260200191505060405180910390f35b6101bd61051f565b005b600260009054906101000a900473ffffffffffffffffffffffffffffffffffffffff1681565b60005481565b600160009054906101000a900473ffffffffffffffffffffffffffffffffffffffff1681565b600080600281111561021f57fe5b600260149054906101000a900460ff16600281111561023a57fe5b1461024457600080fd5b3373ffffffffffffffffffffffffffffffffffffffff16600260009054906101000a900473ffffffffffffffffffffffffffffffffffffffff1673ffffffffffffffffffffffffffffffffffffffff161461029e57600080fd5b7fad005e400c60c62fb9d4afcdc6704c92b896681f0f35988e071bf968be438c9260405160405180910390a160028060146101000a81548160ff021916908360028111156102e857fe5b0217905550600260009054906101000a900473ffffffffffffffffffffffffffffffffffffffff1673ffffffffffffffffffffffffffffffffffffffff166108fc479081150290604051600060405180830381858888f19350505050158015610355573d6000803e3d6000fd5b5050565b600180600281111561036757fe5b600260149054906101000a900460ff16600281111561038257fe5b1461038c57600080fd5b3373ffffffffffffffffffffffffffffffffffffffff16600160009054906101000a900473ffffffffffffffffffffffffffffffffffffffff1673ffffffffffffffffffffffffffffffffffffffff16146103e657600080fd5b7fddb101f17feed7667a6cbdb9ed598053957a877f10ca3eb638deb2a1cc0cc05f60405160405180910390a160028060146101000a81548160ff0219169083600281111561043057fe5b0217905550600160009054906101000a900473ffffffffffffffffffffffffffffffffffffffff1673ffffffffffffffffffffffffffffffffffffffff166108fc6000549081150290604051600060405180830381858888f1935050505015801561049f573d6000803e3d6000fd5b50600260009054906101000a900473ffffffffffffffffffffffffffffffffffffffff1673ffffffffffffffffffffffffffffffffffffffff166108fc479081150290604051600060405180830381858888f19350505050158015610508573d6000803e3d6000fd5b5050565b600260149054906101000a900460ff1681565b600080600281111561052d57fe5b600260149054906101000a900460ff16600281111561054857fe5b1461055257600080fd5b7fd5d55c8a68912e9a110618df8d5e2e83b8d83211c57a8ddd1203df92885dc88160405160405180910390a133600160006101000a81548173ffffffffffffffffffffffffffffffffffffffff021916908373ffffffffffffffffffffffffffffffffffffffff1602179055506001600260146101000a81548160ff021916908360028111156105de57fe5b02179055505056fea265627a7a723158204c92ae961ac2466012513a4a95ec39d3165b3f00c1cc89307f8a193ef8d8ea2a64736f6c63430005100032",
  "source": "pragma solidity ^0.5.16;\n\ncontract PurchaseAgreement{\n    \n    uint256 public value;\n    address payable public buyer;\n    address payable public seller;\n    \n    event PurchaseConfirmed();\n    event PurchaseDeclined();\n    event ItemRecieved();\n    \n    enum State { Created, Locked, Inactive }\n    \n    State public state;\n \n    modifier onlyBuyer(){\n        require(buyer == msg.sender);\n        _;\n    }\n    \n    modifier onlySeller(){\n        require(seller == msg.sender);\n        _;\n    }\n    \n    modifier inState(State _state){\n        require(state == _state);\n        _;\n    }\n\n    constructor() public payable {\n        seller = msg.sender;\n        value = msg.value;\n        state = State.Created;\n    }\n    \n    function confirmPurchase() public inState(State.Created) payable {\n        emit PurchaseConfirmed();\n        buyer = msg.sender;\n        state = State.Locked;\n    }\n    \n    function abortPurchase() public inState(State.Created) onlySeller {\n        emit PurchaseDeclined();\n        state = State.Inactive;\n        seller.transfer(address(this).balance);\n    }\n    \n    function confirmReceived() public inState(State.Locked) onlyBuyer {\n        emit ItemRecieved();\n        state = State.Inactive;\n        buyer.transfer(value);\n        seller.transfer(address(this).balance);\n    }\n    \n}\n",
  "sourcePath": "/home/xriminact/Desktop/contracts/safe_purchase/contracts/PurchaseAgreement.sol",
  "compiler": {
    "name": "solc",
    "version": "0.5.16+commit.9c3226ce.Emscripten.clang"
  },
  "schemaVersion": "3.0.23",
  "updatedAt": "2020-07-14T08:35:33.807Z",
  "networkType": "ethereum",
  "devdoc": {
    "methods": {}
  },
  "userdoc": {
    "methods": {}
  }
}